{
  "_format": "hh-sol-artifact-1",
  "contractName": "Election",
  "sourceName": "contracts/Election.sol",
  "abi": [
    {
      "inputs": [],
      "stateMutability": "nonpayable",
      "type": "constructor"
    },
    {
      "inputs": [
        {
          "internalType": "string",
          "name": "_name",
          "type": "string"
        }
      ],
      "name": "addCandidate",
      "outputs": [],
      "stateMutability": "nonpayable",
      "type": "function"
    },
    {
      "inputs": [],
      "name": "candidateCount",
      "outputs": [
        {
          "internalType": "uint256",
          "name": "",
          "type": "uint256"
        }
      ],
      "stateMutability": "view",
      "type": "function"
    },
    {
      "inputs": [
        {
          "internalType": "uint256",
          "name": "",
          "type": "uint256"
        }
      ],
      "name": "candidates",
      "outputs": [
        {
          "internalType": "uint256",
          "name": "id",
          "type": "uint256"
        },
        {
          "internalType": "string",
          "name": "name",
          "type": "string"
        },
        {
          "internalType": "uint256",
          "name": "voteCount",
          "type": "uint256"
        }
      ],
      "stateMutability": "view",
      "type": "function"
    },
    {
      "inputs": [],
      "name": "getAllCandidates",
      "outputs": [
        {
          "components": [
            {
              "internalType": "uint256",
              "name": "id",
              "type": "uint256"
            },
            {
              "internalType": "string",
              "name": "name",
              "type": "string"
            },
            {
              "internalType": "uint256",
              "name": "voteCount",
              "type": "uint256"
            }
          ],
          "internalType": "struct Election.Candidate[]",
          "name": "",
          "type": "tuple[]"
        }
      ],
      "stateMutability": "view",
      "type": "function"
    },
    {
      "inputs": [
        {
          "internalType": "uint256",
          "name": "_candidateId",
          "type": "uint256"
        }
      ],
      "name": "getCandidate",
      "outputs": [
        {
          "internalType": "uint256",
          "name": "",
          "type": "uint256"
        },
        {
          "internalType": "string",
          "name": "",
          "type": "string"
        },
        {
          "internalType": "uint256",
          "name": "",
          "type": "uint256"
        }
      ],
      "stateMutability": "view",
      "type": "function"
    },
    {
      "inputs": [],
      "name": "owner",
      "outputs": [
        {
          "internalType": "address",
          "name": "",
          "type": "address"
        }
      ],
      "stateMutability": "view",
      "type": "function"
    },
    {
      "inputs": [
        {
          "internalType": "address",
          "name": "_voter",
          "type": "address"
        }
      ],
      "name": "registerVoter",
      "outputs": [],
      "stateMutability": "nonpayable",
      "type": "function"
    },
    {
      "inputs": [
        {
          "internalType": "address",
          "name": "",
          "type": "address"
        }
      ],
      "name": "registeredVoter",
      "outputs": [
        {
          "internalType": "bool",
          "name": "",
          "type": "bool"
        }
      ],
      "stateMutability": "view",
      "type": "function"
    },
    {
      "inputs": [
        {
          "internalType": "uint256",
          "name": "_candidateId",
          "type": "uint256"
        }
      ],
      "name": "vote",
      "outputs": [],
      "stateMutability": "nonpayable",
      "type": "function"
    },
    {
      "inputs": [
        {
          "internalType": "address",
          "name": "",
          "type": "address"
        }
      ],
      "name": "voters",
      "outputs": [
        {
          "internalType": "bool",
          "name": "",
          "type": "bool"
        }
      ],
      "stateMutability": "view",
      "type": "function"
    }
  ],
  "bytecode": "0x6080604052600060015534801561001557600080fd5b50600080546001600160a01b03191633179055610c11806100376000396000f3fe608060405234801561001057600080fd5b506004361061009e5760003560e01c806338db6dd31161006657806338db6dd31461013a578063462e91ec1461014d5780638da5cb5b14610160578063a3ec138d1461018b578063a9a981a3146101ae57600080fd5b80630121b93f146100a35780630cc98147146100b85780632e6997fe146100f05780633477ee2e1461010557806335b8e82014610127575b600080fd5b6100b66100b13660046107e8565b6101c5565b005b6100db6100c6366004610801565b60046020526000908152604090205460ff1681565b60405190151581526020015b60405180910390f35b6100f861033a565b6040516100e79190610877565b6101186101133660046107e8565b6104c3565b6040516100e7939291906108fa565b6101186101353660046107e8565b61056e565b6100b6610148366004610801565b6106a9565b6100b661015b366004610939565b610755565b600054610173906001600160a01b031681565b6040516001600160a01b0390911681526020016100e7565b6100db610199366004610801565b60036020526000908152604090205460ff1681565b6101b760015481565b6040519081526020016100e7565b3360009081526004602052604090205460ff1661024f5760405162461bcd60e51b815260206004820152603c60248201527f596f7520617265206e6f7420656c696769626c6520746f20766f74652061736b60448201527f2061646d696e20746f206669727320726567697374657220796f75200000000060648201526084015b60405180910390fd5b3360009081526003602052604090205460ff16156102a85760405162461bcd60e51b8152602060048201526016602482015275165bdd481a185d9948185b1c9958591e481d9bdd195960521b6044820152606401610246565b6000811180156102ba57506001548111155b6102fd5760405162461bcd60e51b8152602060048201526014602482015273125b9d985b1a590818d85b991a59185d1948125160621b6044820152606401610246565b336000908152600360209081526040808320805460ff1916600117905583835260029182905282200180549161033283610a00565b919050555050565b6060600060015467ffffffffffffffff81111561035957610359610923565b6040519080825280602002602001820160405280156103ae57816020015b61039b60405180606001604052806000815260200160608152602001600081525090565b8152602001906001900390816103775790505b50905060015b60015481116104bd5760026000828152602001908152602001600020604051806060016040529081600082015481526020016001820180546103f590610a19565b80601f016020809104026020016040519081016040528092919081815260200182805461042190610a19565b801561046e5780601f106104435761010080835404028352916020019161046e565b820191906000526020600020905b81548152906001019060200180831161045157829003601f168201915b505050505081526020016002820154815250508260018361048f9190610a4d565b8151811061049f5761049f610a66565b602002602001018190525080806104b590610a00565b9150506103b4565b50919050565b600260205260009081526040902080546001820180549192916104e590610a19565b80601f016020809104026020016040519081016040528092919081815260200182805461051190610a19565b801561055e5780601f106105335761010080835404028352916020019161055e565b820191906000526020600020905b81548152906001019060200180831161054157829003601f168201915b5050505050908060020154905083565b600060606000808411801561058557506001548411155b6105c85760405162461bcd60e51b8152602060048201526014602482015273125b9d985b1a590818d85b991a59185d1948125160621b6044820152606401610246565b6000600260008681526020019081526020016000206040518060600160405290816000820154815260200160018201805461060290610a19565b80601f016020809104026020016040519081016040528092919081815260200182805461062e90610a19565b801561067b5780601f106106505761010080835404028352916020019161067b565b820191906000526020600020905b81548152906001019060200180831161065e57829003601f168201915b5050509183525050600291909101546020918201528151908201516040909201519097919650945092505050565b6000546001600160a01b031633146106d35760405162461bcd60e51b815260040161024690610a7c565b6001600160a01b03811660009081526004602052604090205460ff16156107315760405162461bcd60e51b8152602060048201526012602482015271105b1c9958591e481c9959da5cdd195c995960721b6044820152606401610246565b6001600160a01b03166000908152600460205260409020805460ff19166001179055565b6000546001600160a01b0316331461077f5760405162461bcd60e51b815260040161024690610a7c565b6001805490600061078f83610a00565b90915550506040805160608101825260018054808352602080840186815260008587018190529283526002909152939020825181559251919291908201906107d79082610b1b565b506040820151816002015590505050565b6000602082840312156107fa57600080fd5b5035919050565b60006020828403121561081357600080fd5b81356001600160a01b038116811461082a57600080fd5b9392505050565b6000815180845260005b818110156108575760208185018101518683018201520161083b565b506000602082860101526020601f19601f83011685010191505092915050565b600060208083018184528085518083526040925060408601915060408160051b87010184880160005b838110156108ec57603f19898403018552815160608151855288820151818a8701526108ce82870182610831565b928901519589019590955250948701949250908601906001016108a0565b509098975050505050505050565b8381526060602082015260006109136060830185610831565b9050826040830152949350505050565b634e487b7160e01b600052604160045260246000fd5b60006020828403121561094b57600080fd5b813567ffffffffffffffff8082111561096357600080fd5b818401915084601f83011261097757600080fd5b81358181111561098957610989610923565b604051601f8201601f19908116603f011681019083821181831017156109b1576109b1610923565b816040528281528760208487010111156109ca57600080fd5b826020860160208301376000928101602001929092525095945050505050565b634e487b7160e01b600052601160045260246000fd5b600060018201610a1257610a126109ea565b5060010190565b600181811c90821680610a2d57607f821691505b6020821081036104bd57634e487b7160e01b600052602260045260246000fd5b81810381811115610a6057610a606109ea565b92915050565b634e487b7160e01b600052603260045260246000fd5b6020808252602e908201527f4f6e6c792074686520636f6e7472616374206f776e65722063616e2063616c6c60408201526d103a3434b990333ab731ba34b7b760911b606082015260800190565b601f821115610b16576000816000526020600020601f850160051c81016020861015610af35750805b601f850160051c820191505b81811015610b1257828155600101610aff565b5050505b505050565b815167ffffffffffffffff811115610b3557610b35610923565b610b4981610b438454610a19565b84610aca565b602080601f831160018114610b7e5760008415610b665750858301515b600019600386901b1c1916600185901b178555610b12565b600085815260208120601f198616915b82811015610bad57888601518255948401946001909101908401610b8e565b5085821015610bcb5787850151600019600388901b60f8161c191681555b5050505050600190811b0190555056fea2646970667358221220c7eaf558fe7f0620b0b5d1b23bc9b3ef612f204f7cea51dcceb8ab90b29aad3764736f6c63430008180033",
  "linkReferences": {},
  "deployedLinkReferences": {}
}